{
  "_format": "hh-sol-artifact-1",
  "contractName": "NFT",
  "sourceName": "contracts/NFT.sol",
  "abi": [
    {
      "inputs": [],
      "stateMutability": "nonpayable",
      "type": "constructor"
    },
    {
      "inputs": [
        {
          "internalType": "address",
          "name": "sender",
          "type": "address"
        },
        {
          "internalType": "uint256",
          "name": "tokenId",
          "type": "uint256"
        },
        {
          "internalType": "address",
          "name": "owner",
          "type": "address"
        }
      ],
      "name": "ERC721IncorrectOwner",
      "type": "error"
    },
    {
      "inputs": [
        {
          "internalType": "address",
          "name": "operator",
          "type": "address"
        },
        {
          "internalType": "uint256",
          "name": "tokenId",
          "type": "uint256"
        }
      ],
      "name": "ERC721InsufficientApproval",
      "type": "error"
    },
    {
      "inputs": [
        {
          "internalType": "address",
          "name": "approver",
          "type": "address"
        }
      ],
      "name": "ERC721InvalidApprover",
      "type": "error"
    },
    {
      "inputs": [
        {
          "internalType": "address",
          "name": "operator",
          "type": "address"
        }
      ],
      "name": "ERC721InvalidOperator",
      "type": "error"
    },
    {
      "inputs": [
        {
          "internalType": "address",
          "name": "owner",
          "type": "address"
        }
      ],
      "name": "ERC721InvalidOwner",
      "type": "error"
    },
    {
      "inputs": [
        {
          "internalType": "address",
          "name": "receiver",
          "type": "address"
        }
      ],
      "name": "ERC721InvalidReceiver",
      "type": "error"
    },
    {
      "inputs": [
        {
          "internalType": "address",
          "name": "sender",
          "type": "address"
        }
      ],
      "name": "ERC721InvalidSender",
      "type": "error"
    },
    {
      "inputs": [
        {
          "internalType": "uint256",
          "name": "tokenId",
          "type": "uint256"
        }
      ],
      "name": "ERC721NonexistentToken",
      "type": "error"
    },
    {
      "anonymous": false,
      "inputs": [
        {
          "indexed": true,
          "internalType": "address",
          "name": "owner",
          "type": "address"
        },
        {
          "indexed": true,
          "internalType": "address",
          "name": "approved",
          "type": "address"
        },
        {
          "indexed": true,
          "internalType": "uint256",
          "name": "tokenId",
          "type": "uint256"
        }
      ],
      "name": "Approval",
      "type": "event"
    },
    {
      "anonymous": false,
      "inputs": [
        {
          "indexed": true,
          "internalType": "address",
          "name": "owner",
          "type": "address"
        },
        {
          "indexed": true,
          "internalType": "address",
          "name": "operator",
          "type": "address"
        },
        {
          "indexed": false,
          "internalType": "bool",
          "name": "approved",
          "type": "bool"
        }
      ],
      "name": "ApprovalForAll",
      "type": "event"
    },
    {
      "anonymous": false,
      "inputs": [
        {
          "indexed": true,
          "internalType": "address",
          "name": "from",
          "type": "address"
        },
        {
          "indexed": true,
          "internalType": "address",
          "name": "to",
          "type": "address"
        },
        {
          "indexed": true,
          "internalType": "uint256",
          "name": "tokenId",
          "type": "uint256"
        }
      ],
      "name": "Transfer",
      "type": "event"
    },
    {
      "inputs": [],
      "name": "MAX_SUPPLY",
      "outputs": [
        {
          "internalType": "uint256",
          "name": "",
          "type": "uint256"
        }
      ],
      "stateMutability": "view",
      "type": "function"
    },
    {
      "inputs": [
        {
          "internalType": "address",
          "name": "to",
          "type": "address"
        },
        {
          "internalType": "uint256",
          "name": "tokenId",
          "type": "uint256"
        }
      ],
      "name": "approve",
      "outputs": [],
      "stateMutability": "nonpayable",
      "type": "function"
    },
    {
      "inputs": [
        {
          "internalType": "address",
          "name": "owner",
          "type": "address"
        }
      ],
      "name": "balanceOf",
      "outputs": [
        {
          "internalType": "uint256",
          "name": "",
          "type": "uint256"
        }
      ],
      "stateMutability": "view",
      "type": "function"
    },
    {
      "inputs": [],
      "name": "flipSaleState",
      "outputs": [],
      "stateMutability": "nonpayable",
      "type": "function"
    },
    {
      "inputs": [
        {
          "internalType": "uint256",
          "name": "tokenId",
          "type": "uint256"
        }
      ],
      "name": "getApproved",
      "outputs": [
        {
          "internalType": "address",
          "name": "",
          "type": "address"
        }
      ],
      "stateMutability": "view",
      "type": "function"
    },
    {
      "inputs": [],
      "name": "imageURL",
      "outputs": [
        {
          "internalType": "string",
          "name": "",
          "type": "string"
        }
      ],
      "stateMutability": "view",
      "type": "function"
    },
    {
      "inputs": [
        {
          "internalType": "address",
          "name": "owner",
          "type": "address"
        },
        {
          "internalType": "address",
          "name": "operator",
          "type": "address"
        }
      ],
      "name": "isApprovedForAll",
      "outputs": [
        {
          "internalType": "bool",
          "name": "",
          "type": "bool"
        }
      ],
      "stateMutability": "view",
      "type": "function"
    },
    {
      "inputs": [],
      "name": "isSaleActive",
      "outputs": [
        {
          "internalType": "bool",
          "name": "",
          "type": "bool"
        }
      ],
      "stateMutability": "view",
      "type": "function"
    },
    {
      "inputs": [],
      "name": "metadataURL",
      "outputs": [
        {
          "internalType": "string",
          "name": "",
          "type": "string"
        }
      ],
      "stateMutability": "view",
      "type": "function"
    },
    {
      "inputs": [
        {
          "internalType": "uint256",
          "name": "_numTokens",
          "type": "uint256"
        }
      ],
      "name": "mint",
      "outputs": [],
      "stateMutability": "nonpayable",
      "type": "function"
    },
    {
      "inputs": [],
      "name": "name",
      "outputs": [
        {
          "internalType": "string",
          "name": "",
          "type": "string"
        }
      ],
      "stateMutability": "view",
      "type": "function"
    },
    {
      "inputs": [
        {
          "internalType": "uint256",
          "name": "tokenId",
          "type": "uint256"
        }
      ],
      "name": "ownerOf",
      "outputs": [
        {
          "internalType": "address",
          "name": "",
          "type": "address"
        }
      ],
      "stateMutability": "view",
      "type": "function"
    },
    {
      "inputs": [
        {
          "internalType": "address",
          "name": "from",
          "type": "address"
        },
        {
          "internalType": "address",
          "name": "to",
          "type": "address"
        },
        {
          "internalType": "uint256",
          "name": "tokenId",
          "type": "uint256"
        }
      ],
      "name": "safeTransferFrom",
      "outputs": [],
      "stateMutability": "nonpayable",
      "type": "function"
    },
    {
      "inputs": [
        {
          "internalType": "address",
          "name": "from",
          "type": "address"
        },
        {
          "internalType": "address",
          "name": "to",
          "type": "address"
        },
        {
          "internalType": "uint256",
          "name": "tokenId",
          "type": "uint256"
        },
        {
          "internalType": "bytes",
          "name": "data",
          "type": "bytes"
        }
      ],
      "name": "safeTransferFrom",
      "outputs": [],
      "stateMutability": "nonpayable",
      "type": "function"
    },
    {
      "inputs": [
        {
          "internalType": "address",
          "name": "operator",
          "type": "address"
        },
        {
          "internalType": "bool",
          "name": "approved",
          "type": "bool"
        }
      ],
      "name": "setApprovalForAll",
      "outputs": [],
      "stateMutability": "nonpayable",
      "type": "function"
    },
    {
      "inputs": [
        {
          "internalType": "bytes4",
          "name": "interfaceId",
          "type": "bytes4"
        }
      ],
      "name": "supportsInterface",
      "outputs": [
        {
          "internalType": "bool",
          "name": "",
          "type": "bool"
        }
      ],
      "stateMutability": "view",
      "type": "function"
    },
    {
      "inputs": [],
      "name": "symbol",
      "outputs": [
        {
          "internalType": "string",
          "name": "",
          "type": "string"
        }
      ],
      "stateMutability": "view",
      "type": "function"
    },
    {
      "inputs": [
        {
          "internalType": "uint256",
          "name": "tokenId",
          "type": "uint256"
        }
      ],
      "name": "tokenURI",
      "outputs": [
        {
          "internalType": "string",
          "name": "",
          "type": "string"
        }
      ],
      "stateMutability": "view",
      "type": "function"
    },
    {
      "inputs": [],
      "name": "totalSupply",
      "outputs": [
        {
          "internalType": "uint256",
          "name": "",
          "type": "uint256"
        }
      ],
      "stateMutability": "view",
      "type": "function"
    },
    {
      "inputs": [
        {
          "internalType": "address",
          "name": "from",
          "type": "address"
        },
        {
          "internalType": "address",
          "name": "to",
          "type": "address"
        },
        {
          "internalType": "uint256",
          "name": "tokenId",
          "type": "uint256"
        }
      ],
      "name": "transferFrom",
      "outputs": [],
      "stateMutability": "nonpayable",
      "type": "function"
    }
  ],
  "bytecode": "0x60806040523480156200001157600080fd5b506040518060400160405280600781526020016631306b2064616f60c81b8152506040518060400160405280600381526020016231306b60e81b81525081600090816200005f91906200012e565b5060016200006e82826200012e565b50506000600755506006805460ff19166001179055620001fa565b634e487b7160e01b600052604160045260246000fd5b600181811c90821680620000b457607f821691505b602082108103620000d557634e487b7160e01b600052602260045260246000fd5b50919050565b601f8211156200012957600081815260208120601f850160051c81016020861015620001045750805b601f850160051c820191505b81811015620001255782815560010162000110565b5050505b505050565b81516001600160401b038111156200014a576200014a62000089565b62000162816200015b84546200009f565b84620000db565b602080601f8311600181146200019a5760008415620001815750858301515b600019600386901b1c1916600185901b17855562000125565b600085815260208120601f198616915b82811015620001cb57888601518255948401946001909101908401620001aa565b5085821015620001ea5787850151600019600388901b60f8161c191681555b5050505050600190811b01905550565b6110fd806200020a6000396000f3fe608060405234801561001057600080fd5b506004361061012c5760003560e01c8063564566a8116100ad578063a22cb46511610071578063a22cb46514610261578063b88d4fde14610274578063b90497e014610287578063c87b56dd1461028f578063e985e9c5146102a257600080fd5b8063564566a8146102135780636352211e1461022057806370a082311461023357806395d89b4114610246578063a0712d681461024e57600080fd5b806323b872dd116100f457806323b872dd146101c55780632dcc8c66146101d857806332cb6b0c146101e057806334918dfd146101e957806342842e0e1461020057600080fd5b806301ffc9a71461013157806306fdde0314610159578063081812fc1461016e578063095ea7b31461019957806318160ddd146101ae575b600080fd5b61014461013f366004610c79565b6102b5565b60405190151581526020015b60405180910390f35b610161610307565b6040516101509190610ce3565b61018161017c366004610cf6565b610399565b6040516001600160a01b039091168152602001610150565b6101ac6101a7366004610d2b565b6103c2565b005b6101b760075481565b604051908152602001610150565b6101ac6101d3366004610d55565b6103d1565b610161610461565b6101b76103e881565b6101ac6006805460ff19811660ff90911615179055565b6101ac61020e366004610d55565b61047d565b6006546101449060ff1681565b61018161022e366004610cf6565b61049d565b6101b7610241366004610d91565b6104a8565b6101616104f0565b6101ac61025c366004610cf6565b6104ff565b6101ac61026f366004610dac565b6105e6565b6101ac610282366004610dfe565b6105f1565b610161610609565b61016161029d366004610cf6565b610625565b6101446102b0366004610eda565b6106c2565b60006001600160e01b031982166380ac58cd60e01b14806102e657506001600160e01b03198216635b5e139f60e01b145b8061030157506301ffc9a760e01b6001600160e01b03198316145b92915050565b60606000805461031690610f0d565b80601f016020809104026020016040519081016040528092919081815260200182805461034290610f0d565b801561038f5780601f106103645761010080835404028352916020019161038f565b820191906000526020600020905b81548152906001019060200180831161037257829003601f168201915b5050505050905090565b60006103a4826106f0565b506000828152600460205260409020546001600160a01b0316610301565b6103cd828233610729565b5050565b6001600160a01b03821661040057604051633250574960e11b8152600060048201526024015b60405180910390fd5b600061040d838333610736565b9050836001600160a01b0316816001600160a01b03161461045b576040516364283d7b60e01b81526001600160a01b03808616600483015260248201849052821660448201526064016103f7565b50505050565b6040518060a00160405280607281526020016110566072913981565b610498838383604051806020016040528060008152506105f1565b505050565b6000610301826106f0565b60006001600160a01b0382166104d4576040516322718ad960e21b8152600060048201526024016103f7565b506001600160a01b031660009081526003602052604090205490565b60606001805461031690610f0d565b60065460ff166105475760405162461bcd60e51b815260206004820152601360248201527229b0b6329034b9903737ba1030b1ba34bb329760691b60448201526064016103f7565b6007546103e86105578383610f5d565b111561059d5760405162461bcd60e51b815260206004820152601560248201527422bc31b2b2b239903a37ba30b61039bab838363c9760591b60448201526064016103f7565b60015b8281116105ca576105ba336105b58385610f5d565b61082f565b6105c381610f70565b90506105a0565b5081600760008282546105dd9190610f5d565b90915550505050565b6103cd338383610849565b6105fc8484846103d1565b61045b33858585856108e8565b6040518060a0016040528060728152602001610fe46072913981565b606060006106328361049d565b90506001600160a01b0381166106a25760405162461bcd60e51b815260206004820152602f60248201527f4552433732314d657461646174613a2055524920717565727920666f72206e6f60448201526e3732bc34b9ba32b73a103a37b5b2b760891b60648201526084016103f7565b6040518060a0016040528060728152602001611056607291399392505050565b6001600160a01b03918216600090815260056020908152604080832093909416825291909152205460ff1690565b6000818152600260205260408120546001600160a01b03168061030157604051637e27328960e01b8152600481018490526024016103f7565b6104988383836001610a13565b6000828152600260205260408120546001600160a01b039081169083161561076357610763818486610b19565b6001600160a01b038116156107a157610780600085600080610a13565b6001600160a01b038116600090815260036020526040902080546000190190555b6001600160a01b038516156107d0576001600160a01b0385166000908152600360205260409020805460010190555b60008481526002602052604080822080546001600160a01b0319166001600160a01b0389811691821790925591518793918516917fddf252ad1be2c89b69c2b068fc378daa952ba7f163c4a11628f55a4df523b3ef91a4949350505050565b6103cd828260405180602001604052806000815250610b7d565b6001600160a01b03821661087b57604051630b61174360e31b81526001600160a01b03831660048201526024016103f7565b6001600160a01b03838116600081815260056020908152604080832094871680845294825291829020805460ff191686151590811790915591519182527f17307eab39ab6107e8899845ad3d59bd9653f200f220920489ca2b5937696c31910160405180910390a3505050565b6001600160a01b0383163b15610a0c57604051630a85bd0160e11b81526001600160a01b0384169063150b7a029061092a908890889087908790600401610f89565b6020604051808303816000875af1925050508015610965575060408051601f3d908101601f1916820190925261096291810190610fc6565b60015b6109ce573d808015610993576040519150601f19603f3d011682016040523d82523d6000602084013e610998565b606091505b5080516000036109c657604051633250574960e11b81526001600160a01b03851660048201526024016103f7565b805181602001fd5b6001600160e01b03198116630a85bd0160e11b14610a0a57604051633250574960e11b81526001600160a01b03851660048201526024016103f7565b505b5050505050565b8080610a2757506001600160a01b03821615155b15610ae9576000610a37846106f0565b90506001600160a01b03831615801590610a635750826001600160a01b0316816001600160a01b031614155b8015610a765750610a7481846106c2565b155b15610a9f5760405163a9fbf51f60e01b81526001600160a01b03841660048201526024016103f7565b8115610ae75783856001600160a01b0316826001600160a01b03167f8c5be1e5ebec7d5bd14f71427d1e84f3dd0314c0f7b2291e5b200ac8c7c3b92560405160405180910390a45b505b5050600090815260046020526040902080546001600160a01b0319166001600160a01b0392909216919091179055565b610b24838383610b95565b610498576001600160a01b038316610b5257604051637e27328960e01b8152600481018290526024016103f7565b60405163177e802f60e01b81526001600160a01b0383166004820152602481018290526044016103f7565b610b878383610bfb565b6104983360008585856108e8565b60006001600160a01b03831615801590610bf35750826001600160a01b0316846001600160a01b03161480610bcf5750610bcf84846106c2565b80610bf357506000828152600460205260409020546001600160a01b038481169116145b949350505050565b6001600160a01b038216610c2557604051633250574960e11b8152600060048201526024016103f7565b6000610c3383836000610736565b90506001600160a01b03811615610498576040516339e3563760e11b8152600060048201526024016103f7565b6001600160e01b031981168114610c7657600080fd5b50565b600060208284031215610c8b57600080fd5b8135610c9681610c60565b9392505050565b6000815180845260005b81811015610cc357602081850181015186830182015201610ca7565b506000602082860101526020601f19601f83011685010191505092915050565b602081526000610c966020830184610c9d565b600060208284031215610d0857600080fd5b5035919050565b80356001600160a01b0381168114610d2657600080fd5b919050565b60008060408385031215610d3e57600080fd5b610d4783610d0f565b946020939093013593505050565b600080600060608486031215610d6a57600080fd5b610d7384610d0f565b9250610d8160208501610d0f565b9150604084013590509250925092565b600060208284031215610da357600080fd5b610c9682610d0f565b60008060408385031215610dbf57600080fd5b610dc883610d0f565b915060208301358015158114610ddd57600080fd5b809150509250929050565b634e487b7160e01b600052604160045260246000fd5b60008060008060808587031215610e1457600080fd5b610e1d85610d0f565b9350610e2b60208601610d0f565b925060408501359150606085013567ffffffffffffffff80821115610e4f57600080fd5b818701915087601f830112610e6357600080fd5b813581811115610e7557610e75610de8565b604051601f8201601f19908116603f01168101908382118183101715610e9d57610e9d610de8565b816040528281528a6020848701011115610eb657600080fd5b82602086016020830137600060208483010152809550505050505092959194509250565b60008060408385031215610eed57600080fd5b610ef683610d0f565b9150610f0460208401610d0f565b90509250929050565b600181811c90821680610f2157607f821691505b602082108103610f4157634e487b7160e01b600052602260045260246000fd5b50919050565b634e487b7160e01b600052601160045260246000fd5b8082018082111561030157610301610f47565b600060018201610f8257610f82610f47565b5060010190565b6001600160a01b0385811682528416602082015260408101839052608060608201819052600090610fbc90830184610c9d565b9695505050505050565b600060208284031215610fd857600080fd5b8151610c9681610c6056fe68747470733a2f2f6d6167656e74612d61626f76652d616e61636f6e64612d3131342e6d7970696e6174612e636c6f75642f697066732f6261666b7265696770716769707369736d376d63626a713265323764676932703364786b636a65677374357171746963726f677475327a6b6a366d68747470733a2f2f6d6167656e74612d61626f76652d616e61636f6e64612d3131342e6d7970696e6174612e636c6f75642f697066732f6261666b72656968726b697066736a70376b6c75346b32696a6d78767370326d6f676735666761646b746732376a6b7a786f7679676a77726a6569a2646970667358221220f694a79c13b6e56fac87051918f20d2de13b12ed1534f489a57107f2c3670c1f64736f6c63430008140033",
  "linkReferences": {},
  "deployedLinkReferences": {}
}